:0E0000000C943E000C9400000C9400000C9434
:10000E0000000C9400000C9400000C9400000C9462
:10001E0000000C9400000C9400000C9400000C9452
:10002E0000000C9400000C9400000C9400000C9442
:10003E0000000C9400000C9400000C9400000C9432
:10004E0000000C940000252E326600002D4E414E0D
:10005E00000080C001002D4E414E00494E4600006A
:10006E000200600260000100640262000000F89469
:10007E00EE27ECBBF1E0FBBFEBBFE5BF8DE0A2E0EE
:10008E00BB27ED938A95E9F780E098E0A0E6ED9323
:10009E000197E9F7EEE6F0E085919591009761F012
:1000AE00A591B59105901590BF01F00105900D92A7
:1000BE000197E1F7FB01F0CFEFE5EDBFE8E0EEBF12
:1000CE00C0E6D2E00C947900AA93E881E7B983E008
:1000DE008A95F1F7369A349BFECF349AE4B1F5B196
:1000EE000C940605EF976597E0E0EABBEBBBE7BB28
:1000FE00E8BBE4BBE5BBE1BBE2BBE3BFE2BFECBFE9
:10010E00EFBDEEBDEDBDECBDE7BDE6BDEBBDEABDA1
:10011E00E9BDE8BDE2BDE5BDE4BDE3BDE9BFE5BFB8
:10012E00E4BFEAB9E0E8E8B9E0E0E7B9E1E8E6B94A
:10013E00E0E0E0BFEDB9E6BFA8E00E94DB04A0E07E
:10014E00C3DF8F010E94C905DF01CB01EDECFCEC92
:10015E006CE473E40E941D08DE01A05BBF4FED93BB
:10016E00FD936D937C93FE01FA93EA93E4E5F0E040
:10017E00FA93EA93FE01EC5AFF4F019011906191B0
:10018E007081F0010E94060984E00E940004289606
:10019E00DE010E94CA04A4EFB1E00E94CF060E94C5
:1001AE00A904CDCFFFCFBA93AA931A930A93AA812B
:1001BE00BB8112960E94ED08309729F1AA81BB816E
:1001CE0014960E94ED088F01309761F00230E0E046
:1001DE001E0780F0F80131978F01AA81BB8114961A
:1001EE00ED93FC93AA81BB8112960E94CE053197A6
:1001FE00AC81A083AA81BB810E94ED08FF2312F07F
:10020E000E94CE0506C0AA81BB81EFEFFFEFED93F2
:10021E00FC9319810881259608950E94D405E0E883
:10022E00EA83EFE3EB830E942309EE85FF85EF3F20
:10023E00AFEFFA0749F4E885F985FA93EA93AAE550
:10024E00B0E00E940805B7C0EF3FAFE7FA0749F4E8
:10025E00E885F985FA93EA93ABE5B0E00E940805CC
:10026E00AAC0AB85A73010F0E6E0EB871B85E12F27
:10027E001150E03019F00E94DB05F9CFEC85FD85B9
:10028E006E857F850E941D0921F430E00E94DB05FA
:10029E002DC03B850E94EA0509F008F40BC00E94B0
:1002AE00DB050E94EA0528F00E94F5050E94FA057A
:1002BE00F8CF0DC00E94EA0540F40E94F5050E9499
:1002CE0006060E940D063150F5CF0E94DB05EC8527
:1002DE00FD856E857F850E9412060E940D060E9486
:1002EE00EA0520F00E94F5050E94FA0510E0EB8564
:1002FE00E117A8F1AC81BD818E819F810E94190604
:10030E000E941206DF01CB010E946504EC83FD837F
:10031E006E837F830E94F5050E941D080E940C07C4
:10032E000E2F0E9420060E942706FF27662777279A
:10033E000E944507AC81BD818E819F810E94CF07AF
:10034E000E94F5050E942C060E940D06E12F1F5FEC
:10035E00E03069F60E942006EEE2EC93C8CF0E94D0
:10036E0031063197AA85A08330302CF43195A885BB
:10037E00B985EDE203C0A885B985EBE2EC930E9446
:10038E0031060E9431063197BF01A32FEAE00E9489
:10039E00A708E05DDB01EC930E9431063197BF01A7
:1003AE00A32FEAE00E94D108E05DDB01EC93A88563
:1003BE00B985E0E0EC930E942A0960960895BA93FD
:1003CE00AA93EF9761970E94210910E0FE01E85A67
:1003DE00FF4F0190F081E02DE887F987FE01EA5A80
:1003EE00FF4F0190F081E02DEE83FF83AE81BF8140
:1003FE00E0E0F0E0ED93FC93DE01A45ABF4F0E94C3
:10040E00CE053197E4912E2FE03009F4E9C1E12FAA
:10041E00E03039F4253211F411E002C00E943706A3
:10042E00DEC1E130C1F4253219F40E943706D6C17F
:10043E0012E0E0E0ED8B00E02D3211F401E0CFC1CF
:10044E002B3219F4EBE2ED8BCAC1203219F4E0E243
:10045E00ED8BC5C102C0E23039F450E013E0203319
:10046E0011F40068BCC102C0E33091F4203310F0E7
:10047E002A3308F007C0AAE05A9F502DE22FE0530E
:10048E005E0FADC140E02E3211F414E0A8C10FC0D2
:10049E00E43099F4203310F02A3308F008C00062DB
:1004AE00AAE04A9F402DE22FE0534E0F98C12C3602
:1004BE0019F4026015E093C103C0E53009F08FC155
:1004CE00E22FE33659F40E943E060E9445060E9432
:1004DE003E06A481AA930E944C0680C1E53411F019
:1004EE00E53609F403C0E63609F048C0FE017696FB
:1004FE00EE87FF870E9452060E94F1080E9459065D
:10050E000E945E06AD85AA2332F0AD89AB3259F05A
:10051E00A03281F017C00E9460060E94D9060E9488
:10052E005906EDE2ED8B07FF05C0ED89EA930E94B7
:10053E004C0608C0EE85FF853196EE87FF87319712
:10054E00AD89A08305FF46E0263651F40E94600671
:10055E000E9406094A93AB89BC890E942E0509C0E8
:10056E000E9460060E9406094A932A93AC89BD89AF
:10057E0054DEFE0176960E9465061EC0E33739F4FE
:10058E000E945E060E946D060E9465060EC0E03750
:10059E00C1F40E945E060E946D06EE87FF87AE854F
:1005AE00BF850E9421051E2F08600F77403011F085
:1005BE00411708F001C0142F40E0E0E0EC8B30E072
:1005CE006DC0E43611F0E93611F4046002C0E5376F
:1005DE00A1F4EAE0EC8B01FF08C0E0E0FAEC6AE976
:1005EE007BE30E9472061AE022C0E0E1F7E260E0CF
:1005FE0070E00E94720615E01AC0E83511F408602A
:10060E0003C0E83709F0EAC0E0E1EC8B01FF08C057
:10061E00E0E0F0E060E070E10E94720618E007C0D2
:10062E00E0E0F0E160E070E00E94720614E040301D
:10063E0011F00F7701C041E001FF08C00E945E0675
:10064E000E94520614960E94F1080FC002FF07C0C6
:10065E000E945E060E946D060E94940806C00E94CB
:10066E005E060E946D0666277727EA87FB876C87F2
:10067E007D8702FF12C0AD85AA2342F40E94600658
:10068E000E9486080E945906EDE2ED8BED89E0305E
:10069E0019F01F5F4F5F01C00B7F342F00FD14C098
:1006AE00151710F4351708F00FC007FF08C002FF2A
:1006BE0004C00B7F2D89115001C020E301C020E240
:1006CE000E9437065150ECCF141790F4006102FFD0
:1006DE0006C00E94770609F0515011504150E0E3D8
:1006EE00EA930E944C06503009F051504150ECCF25
:1006FE00312FEC89E030B9F43030A1F003FF06C0A1
:10070E00EE85FF852591EE87FF8705C0AE85BF85F7
:10071E002D91AE87BF870E943706503009F0515099
:10072E003150EACF51C00E9489060E94AC082E2F8C
:10073E002A3030F003FF02C0295C01C0295A01C0E3
:10074E00205D04FD21C0213360F4A889B9898A890E
:10075E009B89A130E0E0BE07E0E08E07E0E09E0757
:10076E0009F40BC0431740F4531710F000FF01C0FB
:10077E0010C020E207FF08C020E3006102FF04C0A2
:10078E000E94770609F051500E943706503009F04A
:10079E00515031500E9489060E94DD080E94590670
:1007AE00EC89A889B9898A899B89FF2766277727CB
:1007BE000E94AC080E947206E889F9896A897B89D1
:1007CE000E941D0909F0AFCF00FF08C0503031F074
:1007DE005150E0E2EA930E944C06F8CF10E00CCEA6
:1007EE00AE81BF810E94ED080E942809EF966F9698
:1007FE000895FF92F82E26970E9423090E949206D2
:10080E00309719F4EFEFFFEF23C0DE0116960E942A
:10081E0082088D010E949206EE83FF83E0E0E88756
:10082E00E987DE011A960E9482080E94ED08FA936B
:10083E00EA931A930A93EAEDF0E0FA93EA93DE0153
:10084E001A96BDDD9F01AE81BF81E0E0EC93F90108
:10085E000E942A092A96FF9008950E940B097B8117
:10086E006A81F981E88177FB770F67FD7160972FB9
:10087E009E5781F078F0983190F4AA27BB278827ED
:10088E0008948795B795A7959A95D1F7EA23FB23F8
:10089E00682305C0E8947727EE27FF2766276F7732
:1008AE00769508F4606877F9A991B9918991999133
:1008BE00EA17FB076807790797FB08950E940B0953
:1008CE000E94FC080E9434040E94010919F40E943F
:1008DE00F70809C0E6F70E94F708A0E0B0E080E84C
:1008EE009FE30E94780724960895AA93E5B3EF70CC
:1008FE00AE2FE881E07FEA2BE5BB82E08A95F1F727
:10090E00AA9A82E08A95F1F7AA9882E08A95F1F781
:10091E0076C0AA93A881E9DFE881E295E883A881F1
:10092E00E4DF81E18A95F1F76AC0AA93E881F0E0ED
:10093E00E05AFD4FE081A981AE0FEBDF5980488070
:10094E0022960895A2E00E949906ACE0E2DFA1E0B3
:10095E000E949906E0E04E2E5E2E0895AA93A8817D
:10096E00AA3011F0571448F0E0E0EA934394A42D16
:10097E00DCDFA881AA3009F442C05394A89AA8815A
:10098E00C8DFA8983CC0BA93AA931A93A981BA81DA
:10099E00ED91A983BA831E2FE03019F0A12FDEDF6F
:1009AE00F5CF188123960895AA93E4B3E06FE4BBC4
:1009BE00A29AA09AA19AAA98A898A9987880E88154
:1009CE00E058E0936202E881E054E0936302A4E110
:1009DE00B0E00E94CF060E949F060E949F060E94D2
:1009EE009F06A0E282DF81E28A95F1F7A8E291DF0D
:1009FE00A4E08FDFA5E88DDFA6E08BDFA3DF2196D5
:100A0E000895BA93AA93E991F991A991B991CD015B
:100A1E0005900D920020E1F7FC010895BA93AA9378
:100A2E00A991B991EE27FF276D91662311F03196AA
:100A3E00FBCF0895BA93AA93AA27BB27E991F99100
:100A4E000590002011F01196FBCFFD010895A5D061
:100A5E00E0E0EA83EFE3EB831A930A93EB85FC85E0
:100A6E00EF3FAFEFFA0731F46AD1A4E6B0E00E948F
:100A7E00080584C0EF3FAFE7FA0731F460D1A5E671
:100A8E00B0E00E9408057AC0AC85AA2352F4E9852D
:100A9E00FA856B857C850E94D90656D15AD1EDE236
:100AAE00EC93A885A73010F0E6E0E8871885E12FD3
:100ABE001150E03021F054D1B5D057D1F8CF5AD1E2
:100ACE000E947F0741D110E0E0E0F0E060E87FE3B4
:100ADE004CD150D10E94620868F042D190D045D1DD
:100AEE001F5F173230F02BD1A9E6B0E00E94080547
:100AFE0045C0EFCF103021F42CD1E0E3EC931DC0B4
:100B0E00E12F1150E030C9F02BD18CD084D0DF0111
:100B1E00CB010E94650429D12DD10E941D080E948F
:100B2E000C070E2F16D18CD0F0E01AD12BD00E94CC
:100B3E00CF0729D18AD008D1E3CFE885E030D1F0B4
:100B4E0008D1EEE2EC93E885E150E887EF5F91F093
:100B5E001AD155D0F9D0E985FA856B857C850E942E
:100B6E000C070E2FF6D06CD0F0E00DD10BD06DD05F
:100B7E00EBD0E9CFAE81BF81E0E0EC931981088123
:100B8E002D9608950E9494080E9445070895ED91B0
:100B9E00FD913196FE93EE930895BA93AA932497FE
:100BAE00E0E0E883E9830895AC81BD818E819F8169
:100BBE00E0E0F0E060E271E40E94CF07EC83FD8399
:100BCE006E837F830895EC81FD816E817F81AC857C
:100BDE00BD858E859F850E9462080895AC85BD8572
:100BEE008E859F850895EDECFCEC6CEC7DE30E9408
:100BFE00CF07EC87FD876E877F873F5F0895E0E024
:100C0E00F0E060E271E40E94CF070895EC87FD8763
:100C1E006E877F870895A0E0B0E080E09FE30E949A
:100C2E007F070895EDECFCEC6CEC7DE30E94CF07A2
:100C3E000895A885B9851196A887B9871197089543
:100C4E00E02FE05DEC93E02F08950E9410090E94C2
:100C5E0078070895E885F9853196E887F98708952C
:100C6E002A93AF81B885E985FA8509950895FE0125
:100C7E00E65AFF4F0190F081E02D08953497DE0182
:100C8E00A65ABF4FED93FC930895AF81B885E985C1
:100C9E00FA8509950895DE01A65ABF4F0D90BC91B5
:100CAE00A02D0895EA87FB876C877D870895DFDF87
:100CBE00E5CFEA85FB856C857D850895EE87FF87F8
:100CCE00AE85BF850E9415051E2F0895E4DF14968C
:100CDE000E94ED080895E88BF98B6A8B7B8B089543
:100CEE000B7FED89EA93DE01A95ABF4F0D90BC919F
:100CFE00A02DFE01E75AFF4F0190F081E02D0995DE
:100D0E0050300895E889F9896A897B89AA85BB855F
:100D1E008C859D850895DE011C960E9482080E9496
:100D2E00ED0808950E949004A3E0B0E00C94CF0665
:100D3E00A0E30E947C0481E28A95F1F70895EE818A
:100D4E00FF81FA93EA930895E987FA876B877C8788
:100D5E000895AE81BF811196AE83BF83119708951A
:100D6E00AA81BB818C819D810895EA83FB836C836C
:100D7E007D830895EA81FB816C817D81A985BA8589
:100D8E008B859C850895A985BA858B859C8508954C
:100D9E00109639F0A8958AEF90E00197F1F7119728
:100DAE00C9F7089530976040704009F07058089563
:100DBE00552342F4503811F4E0FF04C03196691FF8
:100DCE00791F6BF050E8572711F45F93CFC05F3F48
:100DDE0031F0660F000C57956795752F08955F9348
:100DEE0000200AF0CFC0C8C050E8192E1522880F77
:100DFE00991F9527550F879550E8072E0522660FE8
:100E0E00771F7527550F67950895689401C0E8946C
:100E1E005F93F2DF703818F07F3F08F4A7C056E1F9
:100E2E00571BAAF4519558300EF4593030F0EFEFAD
:100E3E00FFEF6FEF7FE777F91AC077275523B9F0E9
:100E4E00EE0FFF1F661F771F5A95D1F710C0772739
:100E5E00583028F0EF2FF62F672F5850F9CF552323
:100E6E0031F076956795F795E7955A95D1F700206D
:100E7E000AF445D15F910895689401C0E8943097C3
:100E8E0060407040B1F0002426F0772312F40094F5
:100E9E0036D1172E7EE1112032F07A95EE0FFF1F1C
:100EAE00661F111CF9CFEF2FF62F612D5F938ADF8E
:100EBE005F9108954F93AF01FD01DA01AB01BC01C3
:100ECE00CA01402D012C142E4F910895EA0FFB1FDD
:100EDE00681F0895E095F0956095EF5FFF4F6F4F97
:100EEE0008955F9381DF903871F150E8152604C0A4
:100EFE005F937ADF903839F1703821F1572F591BF3
:100F0E002BF112F4D7DFFACF583118F0AA27BB27EE
:100F1E008827583028F0AB2FB82F88275850F9CF94
:100F2E00552329F08695B795A7955A95D9F7502D43
:100F3E00512572F0CBDF38F46795F795E7957395E9
:100F4E0013F420C0B7DF3EDF5F910895D8F7FBCFD3
:100F5E00EA1BFB0B680B51F010F40094BBDF662309
:100F6E0092F3EE0FFF1F661F7A95CBF7EE27FF2742
:100F7E00662777275F910895EFEFFFEF6FE77FEF1B
:100F8E005F910895EFEFFFEF6FE77FE75F910895B1
:100F9E005F932ADF703851F3903841F3012408949F
:100FAE00791F23F41CF300203AF3ECCF0F921F931A
:100FBE002F933F934F93112722279927689FA001C4
:100FCE008F9F302D410D591F6B9F300D411D591FA5
:100FDE008E9F27D0BF9F25D06A9F23D0BE9F1DD046
:100FEE00AF9F1BD0AE9F110D291F391F491F591FCF
:100FFE00E32FF42F652F522F4F913F912F911F9179
:10100E000F9066232AF0550FEE1FFF1F661F02C0BA
:10101E0073954BF2CDDE5F910895100D211D391F92
:10102E0002C0200D311D491F591F08955F93DCDE4C
:10103E00703821F411200AF49FCFA4CF903809F410
:10104E0095CF01240894970B1BF4D4F30020F3CF13
:10105E00792F1F932F933F934F93112411272227FC
:10106E0033274427552790E2AE17BF07860741075F
:10107E0030F0AE1BBF0B860B410B089401C0889459
:10108E00551F221F331F111CAA1FBB1F881F441F71
:10109E009A9551F7F901612D4F913F912F911F9123
:1010AE00662332F0550FEE1FFF1F661F7A9543F22F
:1010BE007FDE5F91089599239AF0772342F0971778
:1010CE0048F029F4AE17BF07860720F031F0989448
:1010DE00889408959894089408951894889408957F
:1010EE007723C2F7971798F3A9F7EA17FB07680754
:1010FE0088F399F3ECCF0024AF0DB01D0895F09551
:10110E0060957095E195FF4F6F4F7F4F0895FE2FBD
:10111E00FF0FFF0B6F2F7F2F08956F2F660F660B3C
:10112E00762F0895002498E0AA0F001C0E1A10F4D2
:10113E000E0E01C0A1609A95B9F7EA2FA02D089561
:10114E0039D0F0DF0EF4E19508953F934F935F93FE
:10115E00002411244427552730E2AA0FBB1F881FF5
:10116E00991F001C111C441F551F0E1A1F0A460BF7
:10117E00570B28F40E0E1F1E461F571F01C0A160ED
:10118E003A9559F7FD01BC01D001CA015F914F910B
:10119E003F910895E894A7FF02C0A1956894E7FDDA
:1011AE00E195C0DFEA2F0EF4E1950895CEDFFD0143
:1011BE00BC010895E894E7FF02C0E1956894A7FF8B
:1011CE0004C0A19500F8039400FA0895ED91FC91E6
:1011DE0011970895ED91FD916D917C91139708955E
:1011EE00E881F9816A817B810895A881B9818A811C
:1011FE009B810895E883F9836A837B8308957A93AC
:10120E006A93FA93EA9308959A938A93BA93AA9358
:10121E000895182E862F612D192E972F712D1B2EA6
:10122E00BF2FF12D1A2EAE2FE12D0895309760406D
:10123E00704008955A934A933A932A931A930A93B5
:10124E0008955D814C813B812A8119810881089521
:00000001FF
