:060000000C943E000C947C
:1000060000000C9400000C9400000C9400000C946A
:1000160000000C9400000C9400000C9400000C945A
:1000260000000C9400000C9400000C9400000C944A
:1000360000000C9400000C9400000C9400000C943A
:1000460000000C9400000C9400000C940000102793
:10005600E80364000A00010000100001100001001E
:100066005468656D70203D202564200080C0020024
:10007600600272000000F894EE27ECBBF1E0FBBFD3
:10008600EBBFE5BF8DE0A2E0BB27ED938A95E9F7CC
:1000960080E098E0A0E6ED930197E9F7E4E7F0E069
:1000A60085919591009761F0A591B5910590159070
:1000B600BF01F00105900D920197E1F7FB01F0CF2A
:1000C600EFE5EDBFE8E0EEBFC0E6D2E00C947900C4
:1000D600AA93E881E7B983E08A95F1F7369A349BCB
:1000E600FECF349AE4B1F5B10C9404036497E0E0D2
:1000F600EABBEBBBE7BBE8BBE4BBE5BBE1BBE2BBF2
:10010600E3BFE2BFECBFEFBDEEBDEDBDECBDE7BDAD
:10011600E6BDEBBDEABDE9BDE8BDE2BDE5BDE4BDBA
:10012600E3BDE9BFE5BFE4BFEAB9E0E8E8B9E0E06E
:10013600E7B9E1E8E6B9E0E0E0BFEDB9E6BFA0E186
:100146000E94D902A0E0C4DF8F010E944B040E94E6
:10015600C803DF01CB01ECEBF4E763E070E40E9437
:10016600F6030E9491039F01FE01FA93EA93E6E6E5
:10017600F0E0FA93EA93F9010E944B040E945804B6
:1001860084E00E9446022896DE010E94C802A4EF7F
:10019600B1E00E9458030E94A702D4CFFFCFBA93C2
:1001A600AA931A930A93AA81BB8112960E945004BD
:1001B600309759F1AA81BB8114960E9450048F0191
:1001C600309761F00230E0E01E0798F0F8013197B1
:1001D6008F01AA81BB811496ED93FC93AA81BB8102
:1001E6001296ED91FD913196FE93EE933197AC8187
:1001F600A083AA81BB810E945004FF232AF0ED91BF
:10020600FD913196FE93EE9306C0AA81BB81EFEF76
:10021600FFEFED93FC931981088125960895BA9313
:10022600AA9326970E945D0410E0AC85BD85E0E0A8
:10023600F0E0ED93FC93EA89FB893196EA8BFB8B20
:100246003197E4912E2FE03009F415C1E12FE0300B
:1002560039F4253211F411E002C00E941F030AC1CD
:10026600E130A9F4253219F40E941F0302C112E0FD
:1002760040E000E02D3211F401E0FCC02B3211F415
:100286004BE2F8C0203211F440E2F4C002C0E23082
:1002960039F450E013E0203311F40068EBC003C0DA
:1002A600E33009F0E7C0203310F02A3308F007C026
:1002B600AAE05A9F502DE22FE0535E0FDBC0E22FDB
:1002C600E33649F40E942603E889F989A481AA93B2
:1002D6000E942C03CEC0E33741F40E9426030E94FD
:1002E60032030E9406031E2F0AC0E03761F40E9403
:1002F60026030E9432030E9412031E2F086002602A
:100306000F7730E034C0E43611F0E93611F40460BA
:1003160002C0E53731F4E4E5F0E0EE83FF8315E053
:100326000CC0E83511F4086003C0E83709F0A1C035
:10033600EEE5F0E0EE83FF8314E002FF14C00E94B6
:1003460026030E943C03AB85AA233AF4EA85FB8583
:100356000E943F04EA87FB874DE2403011F01F5FA1
:1003660001C00B7F04C00E9426030E943C0300FDCF
:1003760011C0151778F407FF08C002FF04C00B7FF1
:10038600242F115001C020E301C020E20E941F0368
:100396005150EFCF312F01FF17C03030A1F003FFCE
:1003A60006C0EE81FF812591EE83FF8305C0AE81F5
:1003B600BF812D91AE83BF830E941F03503009F089
:1003C60051503150EACF4BC020E3EE81FF810E94AD
:1003D6005404E887F987EE81FF813296EE83FF8326
:1003E600E885F985AA85BB85AE17BF0750F02F5F54
:1003F600A885B985EA85FB85EA1BFB0BEA87FB879F
:10040600EFCF2A3328F003FF02C0295F01C0295D20
:1004160004FD1AC0213320F4A885B985119709F483
:1004260009C0531710F000FF01C013C020E207FFF8
:100436000BC020E3006102FF07C00B7F4A930E94B6
:100446002C03503009F051500E941F03503009F020
:1004560051503150A885B985129708F0B5CF00FFE5
:1004660008C0503031F05150E0E2EA930E942C036C
:10047600F8CF10E0E0CEAC85BD850E9450040E9406
:10048600640464960895FF92F82E26970E945F04EE
:100496000E944403309719F4EFEFFFEF23C0DE010B
:1004A60016960E943B048D010E944403EE83FF834F
:1004B600E0E0E887E987DE011A960E943B040E9485
:1004C6005004FA93EA931A930A93E2EDF0E0FA9352
:1004D600EA93DE011A96A3DE9F01AE81BF81E0E0BA
:1004E600EC93F9010E9466042A96FF900895AA9358
:1004F600E2B3EF70AE2FE881E07FEA2BE2BB82E049
:100506008A95F1F7929A82E08A95F1F7929882E0BD
:100516008A95F1F776C0AA93A881E9DFE881E2958A
:10052600E883A881E4DF81E18A95F1F76AC0AA939E
:10053600E881F0E0E05AFD4FE081A981AE0FEBDFE4
:100546005980488022960895A2E00E944B03ACE0B1
:10055600E2DFA1E00E944B03E0E04E2E5E2E0895FE
:10056600AA93A881AA3011F0571448F0E0E0EA9364
:100576004394A42DDCDFA881AA3009F442C0539429
:10058600909AA881C8DF90983CC0BA93AA931A9310
:10059600A981BA81ED91A983BA831E2FE03019F0A3
:1005A600A12FDEDFF5CF188123960895AA93E1B334
:1005B600E06FE1BB8A9A889A899A92989098919866
:1005C6007880E881E058E0936202E881E054E093A5
:1005D6006302A4E1B0E00E9458030E9451030E9406
:1005E60051030E945103A0E282DF81E28A95F1F76E
:1005F600A8E291DFA4E08FDFA5E88DDFA6E08BDF20
:10060600A3DF21960895BA93AA93A991B991EE27EB
:10061600FF276D91662311F03196FBCF0895BA93AB
:10062600AA93AA27BB27E991F9910590002011F01A
:100636001196FBCFFD0108952A93AD85BE85EF8502
:10064600F88909950895E889F9893497E88BF98B33
:100656000895AD85BE85EF85F88909950895A88921
:10066600B98914960E945004EE83FF83AE81BF8140
:100676000895A889B98914960E945004EA87FB87D1
:100686000895DE011C960E943B040E9450040895C2
:100696000E948E02A3E0B0E00C945803A0E30E94EF
:1006A6007A0281E28A95F1F70895109639F0A895B5
:1006B6008AEF90E00197F1F71197C9F7089555234E
:1006C60042F4503811F4E0FF04C03196691F791FD7
:1006D6006BF050E8572711F45F9373C05F3F31F01A
:1006E600660F000C57956795752F08955F93002048
:1006F6000AF073C06CC050E8192E1522880F991F96
:100706009527550F879550E8072E0522660F771F08
:100716007527550F67950895689401C0E8945F930F
:10072600F2DF703818F07F3F08F44BC056E1571BD4
:10073600AAF4519558300EF4593030F0EFEFFFEF30
:100746006FEF7FE777F91AC077275523B9F0EE0FD9
:10075600FF1F661F771F5A95D1F710C077275830AD
:1007660028F0EF2FF62F672F5850F9CF552331F089
:1007760076956795F795E7955A95D1F700200AF48F
:100786007FD05F910895689401C0E89430976040E7
:100796007040B1F0002426F0772312F4009470D054
:1007A600172E7EE1112032F07A95EE0FFF1F661F9D
:1007B600111CF9CFEF2FF62F612D5F938ADF5F9122
:1007C6000895EE27FF27662777275F910895EFEFB5
:1007D600FFEF6FE77FEF5F910895EFEFFFEF6FE7B2
:1007E6007FE75F9108955F9386DF703821F41120CB
:1007F6000AF4EDCFF2CF903809F4E3CF0124089440
:10080600970B1BF4D4F30020F3CF792F1F932F936C
:100816003F934F9311241127222733274427552727
:1008260090E2AE17BF078607410730F0AE1BBF0B3D
:10083600860B410B089401C08894551F221F331F55
:10084600111CAA1FBB1F881F441F9A9551F7F90157
:10085600612D4F913F912F911F91662332F0550FD5
:10086600EE1FFF1F661F7A9543F229DF5F910895F9
:100876000024AF0DB01D0895F195E195F04008955F
:10088600F09560957095E195FF4F6F4F7F4F0895F6
:100896006F2F660F660B762F0895ED91FC911197D9
:1008A60008950590F491E02D08957A936A93FA934A
:1008B600EA9308955A934A933A932A931A930A937A
:1008C60008955D814C813B812A81198108810895B3
:00000001FF
